{
  "transactions": [
    {
      "hash": "0x9b5fff91e4685bcc4f81c641fc8f9dc78e5e158fbf8a23aa7850ce03bf0b5b79",
      "transactionType": "CALL",
      "contractName": null,
      "contractAddress": "0x30e9b6b0d161cbd5ff8cf904ff4fa43ce66ac346",
      "function": "approve(address,uint256)",
      "arguments": [
        "0x98eB1B52F962a91D9b0E30e08a7C0DDc2d49161a",
        "115792089237316195423570985008687907853269984665640564039457584007913129639935"
      ],
      "transaction": {
        "from": "0x19661d036d4e590948b9c00eef3807b88fbfa8e1",
        "to": "0x30e9b6b0d161cbd5ff8cf904ff4fa43ce66ac346",
        "gas": "0x9858",
        "value": "0x0",
        "input": "0x095ea7b300000000000000000000000098eb1b52f962a91d9b0e30e08a7c0ddc2d49161affffffffffffffffffffffffffffffffffffffffffffffffffffffffffffffff",
        "nonce": "0x14f",
        "chainId": "0xaa36a7"
      },
      "additionalContracts": [],
      "isFixedGasLimit": false
    },
    {
      "hash": "0x1bfb803412d3e60322a38deca8e09ee959d5e002ea12a267ee887e1fbe7afe00",
      "transactionType": "CALL",
      "contractName": null,
      "contractAddress": "0x98eb1b52f962a91d9b0e30e08a7c0ddc2d49161a",
      "function": "open((uint32,bytes32,bytes))",
      "arguments": [
        "(1743883536, 0x08d75650babf4de09c9273d48ef647876057ed91d4323f8a2e3ebc2cd8a63b5e, 0x000000000000000000000000000000000000000000000000000000000000002000000000000000000000000019661d036d4e590948b9c00eef3807b88fbfa8e100000000000000000000000019661d036d4e590948b9c00eef3807b88fbfa8e100000000000000000000000030e9b6b0d161cbd5ff8cf904ff4fa43ce66ac346000000000000000000000000d0a9c6e7ff012f22ba52038f9727b50e16466176000000000000000000000000000000000000000000000000016345785d8a0000000000000000000000000000000000000000000000000000016345785d8a00000000000000000000000000000000000000000000000000000000000000000afc0000000000000000000000000000000000000000000000000000000000aa36a700000000000000000000000000000000000000000000000000000000000013fb00000000000000000000000021654dfbf44125271e87f71633ec1af17d0d685a0000000000000000000000000000000000000000000000000000000067f18d1000000000000000000000000000000000000000000000000000000000000001800000000000000000000000000000000000000000000000000000000000000000)"
      ],
      "transaction": {
        "from": "0x19661d036d4e590948b9c00eef3807b88fbfa8e1",
        "to": "0x98eb1b52f962a91d9b0e30e08a7c0ddc2d49161a",
        "gas": "0xea803",
        "value": "0x9184e72a000",
        "input": "0xe917a96200000000000000000000000000000000000000000000000000000000000000200000000000000000000000000000000000000000000000000000000067f18d1008d75650babf4de09c9273d48ef647876057ed91d4323f8a2e3ebc2cd8a63b5e000000000000000000000000000000000000000000000000000000000000006000000000000000000000000000000000000000000000000000000000000001c0000000000000000000000000000000000000000000000000000000000000002000000000000000000000000019661d036d4e590948b9c00eef3807b88fbfa8e100000000000000000000000019661d036d4e590948b9c00eef3807b88fbfa8e100000000000000000000000030e9b6b0d161cbd5ff8cf904ff4fa43ce66ac346000000000000000000000000d0a9c6e7ff012f22ba52038f9727b50e16466176000000000000000000000000000000000000000000000000016345785d8a0000000000000000000000000000000000000000000000000000016345785d8a00000000000000000000000000000000000000000000000000000000000000000afc0000000000000000000000000000000000000000000000000000000000aa36a700000000000000000000000000000000000000000000000000000000000013fb00000000000000000000000021654dfbf44125271e87f71633ec1af17d0d685a0000000000000000000000000000000000000000000000000000000067f18d1000000000000000000000000000000000000000000000000000000000000001800000000000000000000000000000000000000000000000000000000000000000",
        "nonce": "0x150",
        "chainId": "0xaa36a7"
      },
      "additionalContracts": [],
      "isFixedGasLimit": false
    }
  ],
  "receipts": [
    {
      "status": "0x1",
      "cumulativeGasUsed": "0x3c3ef5",
      "logs": [
        {
          "address": "0x30e9b6b0d161cbd5ff8cf904ff4fa43ce66ac346",
          "topics": [
            "0x8c5be1e5ebec7d5bd14f71427d1e84f3dd0314c0f7b2291e5b200ac8c7c3b925",
            "0x00000000000000000000000019661d036d4e590948b9c00eef3807b88fbfa8e1",
            "0x00000000000000000000000098eb1b52f962a91d9b0e30e08a7c0ddc2d49161a"
          ],
          "data": "0xffffffffffffffffffffffffffffffffffffffffffffffffffffffffffffffff",
          "blockHash": "0x40c8fb70d19b87cb54db0e163da0c162737daf620c719951e0757cc843f4ab8f",
          "blockNumber": "0x7ada3b",
          "blockTimestamp": "0x67f03bc0",
          "transactionHash": "0x9b5fff91e4685bcc4f81c641fc8f9dc78e5e158fbf8a23aa7850ce03bf0b5b79",
          "transactionIndex": "0x33",
          "logIndex": "0x28",
          "removed": false
        }
      ],
      "logsBloom": "0x00000000000000000000000000000000000000000000001000000000000000000000000000000010000000000000000000000000000000000000000000200000000000000000000000000000000000000000000000000000000000000000000000000000000000000000000000000000000000000000000000000000000000000000000000000000000000000000000000000000000000000000000000000000020000000000000010000000000000000000000000000000000000000000000000000000000000000100000000000000000000000000000100000000000000001010000000000000000000000000000000000000080000000000040000000000",
      "type": "0x2",
      "transactionHash": "0x9b5fff91e4685bcc4f81c641fc8f9dc78e5e158fbf8a23aa7850ce03bf0b5b79",
      "transactionIndex": "0x33",
      "blockHash": "0x40c8fb70d19b87cb54db0e163da0c162737daf620c719951e0757cc843f4ab8f",
      "blockNumber": "0x7ada3b",
      "gasUsed": "0x682b",
      "effectiveGasPrice": "0x14389a",
      "from": "0x19661d036d4e590948b9c00eef3807b88fbfa8e1",
      "to": "0x30e9b6b0d161cbd5ff8cf904ff4fa43ce66ac346",
      "contractAddress": null
    },
    {
      "status": "0x1",
      "cumulativeGasUsed": "0x46db59",
      "logs": [
        {
          "address": "0x30e9b6b0d161cbd5ff8cf904ff4fa43ce66ac346",
          "topics": [
            "0xddf252ad1be2c89b69c2b068fc378daa952ba7f163c4a11628f55a4df523b3ef",
            "0x00000000000000000000000019661d036d4e590948b9c00eef3807b88fbfa8e1",
            "0x00000000000000000000000098eb1b52f962a91d9b0e30e08a7c0ddc2d49161a"
          ],
          "data": "0x000000000000000000000000000000000000000000000000016345785d8a0000",
          "blockHash": "0x40c8fb70d19b87cb54db0e163da0c162737daf620c719951e0757cc843f4ab8f",
          "blockNumber": "0x7ada3b",
          "blockTimestamp": "0x67f03bc0",
          "transactionHash": "0x1bfb803412d3e60322a38deca8e09ee959d5e002ea12a267ee887e1fbe7afe00",
          "transactionIndex": "0x34",
          "logIndex": "0x29",
          "removed": false
        },
        {
          "address": "0xffaef09b3cd11d9b20d1a19becca54eec2884766",
          "topics": [
            "0x769f711d20c679153d382254f59892613b58a97cc876b249134ac25c80f9c814",
            "0x00000000000000000000000098eb1b52f962a91d9b0e30e08a7c0ddc2d49161a",
            "0x00000000000000000000000000000000000000000000000000000000000013fb",
            "0x00000000000000000000000021654dfbf44125271e87f71633ec1af17d0d685a"
          ],
          "data": "0x000000000000000000000000000000000000000000000000000000000000002000000000000000000000000000000000000000000000000000000000000000ed03000cdb4800aa36a700000000000000000000000098eb1b52f962a91d9b0e30e08a7c0ddc2d49161a000013fb00000000000000000000000021654dfbf44125271e87f71633ec1af17d0d685af70f140230e9b6b0d161cbd5ff8cf904ff4fa43ce66ac346000000000000000000000000000000000000000000000000016345785d8a000030e9b6b0d161cbd5ff8cf904ff4fa43ce66ac346000000000000000000000000000000000000000000000000016345785d8a000019661d036d4e590948b9c00eef3807b88fbfa8e158e32ebfb1eba848b27000afc4a5251b862ab086354c2d6d068aa92cb56ce14b00000000000000000000000000000000000000",
          "blockHash": "0x40c8fb70d19b87cb54db0e163da0c162737daf620c719951e0757cc843f4ab8f",
          "blockNumber": "0x7ada3b",
          "blockTimestamp": "0x67f03bc0",
          "transactionHash": "0x1bfb803412d3e60322a38deca8e09ee959d5e002ea12a267ee887e1fbe7afe00",
          "transactionIndex": "0x34",
          "logIndex": "0x2a",
          "removed": false
        },
        {
          "address": "0xffaef09b3cd11d9b20d1a19becca54eec2884766",
          "topics": [
            "0x788dbc1b7152732178210e7f4d9d010ef016f9eafbe66786bd7169f56e0c353a",
            "0x31301d28ecd48ec6069bb8b4b1b4206b07f6a953f7a8828a0629642784f44656"
          ],
          "data": "0x",
          "blockHash": "0x40c8fb70d19b87cb54db0e163da0c162737daf620c719951e0757cc843f4ab8f",
          "blockNumber": "0x7ada3b",
          "blockTimestamp": "0x67f03bc0",
          "transactionHash": "0x1bfb803412d3e60322a38deca8e09ee959d5e002ea12a267ee887e1fbe7afe00",
          "transactionIndex": "0x34",
          "logIndex": "0x2b",
          "removed": false
        },
        {
          "address": "0x4917a9746a7b6e0a57159ccb7f5a6744247f2d0d",
          "topics": [
            "0x253a3a04cab70d47c1504809242d9350cd81627b4f1d50753e159cf8cd76ed33"
          ],
          "data": "0x31301d28ecd48ec6069bb8b4b1b4206b07f6a953f7a8828a0629642784f4465600000000000000000000000000000000000000000000000000000000000cd92a",
          "blockHash": "0x40c8fb70d19b87cb54db0e163da0c162737daf620c719951e0757cc843f4ab8f",
          "blockNumber": "0x7ada3b",
          "blockTimestamp": "0x67f03bc0",
          "transactionHash": "0x1bfb803412d3e60322a38deca8e09ee959d5e002ea12a267ee887e1fbe7afe00",
          "transactionIndex": "0x34",
          "logIndex": "0x2c",
          "removed": false
        },
        {
          "address": "0x6f2756380fd49228ae25aa7f2817993cb74ecc56",
          "topics": [
            "0x65695c3748edae85a24cc2c60b299b31f463050bc259150d2e5802ec8d11720a",
            "0x31301d28ecd48ec6069bb8b4b1b4206b07f6a953f7a8828a0629642784f44656",
            "0x00000000000000000000000000000000000000000000000000000000000013fb"
          ],
          "data": "0x0000000000000000000000000000000000000000000000000000000000033348000000000000000000000000000000000000000000000000000002dc8078ca30",
          "blockHash": "0x40c8fb70d19b87cb54db0e163da0c162737daf620c719951e0757cc843f4ab8f",
          "blockNumber": "0x7ada3b",
          "blockTimestamp": "0x67f03bc0",
          "transactionHash": "0x1bfb803412d3e60322a38deca8e09ee959d5e002ea12a267ee887e1fbe7afe00",
          "transactionIndex": "0x34",
          "logIndex": "0x2d",
          "removed": false
        },
        {
          "address": "0x98eb1b52f962a91d9b0e30e08a7c0ddc2d49161a",
          "topics": [
            "0x3448bbc2203c608599ad448eeb1007cea04b788ac631f9f558e8dd01a3c27b3d",
            "0x58e32ebfb1eba848b27000afc4a5251b862ab086354c2d6d068aa92cb56ce14b"
          ],
          "data": "0x000000000000000000000000000000000000000000000000000000000000002000000000000000000000000019661d036d4e590948b9c00eef3807b88fbfa8e10000000000000000000000000000000000000000000000000000000000aa36a700000000000000000000000000000000000000000000000000000000ffffffff0000000000000000000000000000000000000000000000000000000067f18d1058e32ebfb1eba848b27000afc4a5251b862ab086354c2d6d068aa92cb56ce14b000000000000000000000000000000000000000000000000000000000000010000000000000000000000000000000000000000000000000000000000000001a000000000000000000000000000000000000000000000000000000000000002400000000000000000000000000000000000000000000000000000000000000001000000000000000000000000d0a9c6e7ff012f22ba52038f9727b50e16466176000000000000000000000000000000000000000000000000016345785d8a000000000000000000000000000021654dfbf44125271e87f71633ec1af17d0d685a00000000000000000000000000000000000000000000000000000000000013fb000000000000000000000000000000000000000000000000000000000000000100000000000000000000000030e9b6b0d161cbd5ff8cf904ff4fa43ce66ac346000000000000000000000000000000000000000000000000016345785d8a000000000000000000000000000000000000000000000000000000000000000000000000000000000000000000000000000000000000000000000000000000aa36a70000000000000000000000000000000000000000000000000000000000000001000000000000000000000000000000000000000000000000000000000000002000000000000000000000000000000000000000000000000000000000000013fb00000000000000000000000021654dfbf44125271e87f71633ec1af17d0d685a000000000000000000000000000000000000000000000000000000000000006000000000000000000000000000000000000000000000000000000000000001c0000000000000000000000000000000000000000000000000000000000000002000000000000000000000000019661d036d4e590948b9c00eef3807b88fbfa8e100000000000000000000000019661d036d4e590948b9c00eef3807b88fbfa8e100000000000000000000000030e9b6b0d161cbd5ff8cf904ff4fa43ce66ac346000000000000000000000000d0a9c6e7ff012f22ba52038f9727b50e16466176000000000000000000000000000000000000000000000000016345785d8a0000000000000000000000000000000000000000000000000000016345785d8a00000000000000000000000000000000000000000000000000000000000000000afc0000000000000000000000000000000000000000000000000000000000aa36a700000000000000000000000000000000000000000000000000000000000013fb00000000000000000000000021654dfbf44125271e87f71633ec1af17d0d685a0000000000000000000000000000000000000000000000000000000067f18d1000000000000000000000000000000000000000000000000000000000000001800000000000000000000000000000000000000000000000000000000000000000",
          "blockHash": "0x40c8fb70d19b87cb54db0e163da0c162737daf620c719951e0757cc843f4ab8f",
          "blockNumber": "0x7ada3b",
          "blockTimestamp": "0x67f03bc0",
          "transactionHash": "0x1bfb803412d3e60322a38deca8e09ee959d5e002ea12a267ee887e1fbe7afe00",
          "transactionIndex": "0x34",
          "logIndex": "0x2e",
          "removed": false
        }
      ],
      "logsBloom": "0x0000000000000080800000000000000000000108000080100000000000200400000000000000001000000000000008008040000000001000000000000020080000000000000000000080000800000000000008000000000000000000000000000000000000000000000002000000000000080000000000200000c010000000000000000000000000000000000000408000000000000000000000000000000000800000000000000010000000000000000200800000000000000080400000000000001002000000000100000000000000000000080000000110000000000000101220402000008000000000000000000000000400084000000000040000000400",
      "type": "0x2",
      "transactionHash": "0x1bfb803412d3e60322a38deca8e09ee959d5e002ea12a267ee887e1fbe7afe00",
      "transactionIndex": "0x34",
      "blockHash": "0x40c8fb70d19b87cb54db0e163da0c162737daf620c719951e0757cc843f4ab8f",
      "blockNumber": "0x7ada3b",
      "gasUsed": "0xa9c64",
      "effectiveGasPrice": "0x14389a",
      "from": "0x19661d036d4e590948b9c00eef3807b88fbfa8e1",
      "to": "0x98eb1b52f962a91d9b0e30e08a7c0ddc2d49161a",
      "contractAddress": null
    }
  ],
  "libraries": [],
  "pending": [],
  "returns": {},
  "timestamp": 1743797188,
  "chain": 11155111,
  "commit": "adf00b0"
}