{
  "transactions": [
    {
      "hash": "0x593ad73624685b6d114310e9ed405f5371c3d63b34df844b3a88b3a6055ebd84",
      "transactionType": "CALL",
      "contractName": null,
      "contractAddress": "0x21654dfbf44125271e87f71633ec1af17d0d685a",
      "function": "settle(bytes32[])",
      "arguments": [
        "[0x58e32ebfb1eba848b27000afc4a5251b862ab086354c2d6d068aa92cb56ce14b]"
      ],
      "transaction": {
        "from": "0x19661d036d4e590948b9c00eef3807b88fbfa8e1",
        "to": "0x21654dfbf44125271e87f71633ec1af17d0d685a",
        "gas": "0x58e49",
        "value": "0xaa87bee538000",
        "input": "0xe7f921a20000000000000000000000000000000000000000000000000000000000000020000000000000000000000000000000000000000000000000000000000000000158e32ebfb1eba848b27000afc4a5251b862ab086354c2d6d068aa92cb56ce14b",
        "nonce": "0xd",
        "chainId": "0x13fb"
      },
      "additionalContracts": [],
      "isFixedGasLimit": false
    }
  ],
  "receipts": [
    {
      "status": "0x1",
      "cumulativeGasUsed": "0x3cc81",
      "logs": [
        {
          "address": "0xb08d78f439e55d02c398519eef61606a5926245f",
          "topics": [
            "0x769f711d20c679153d382254f59892613b58a97cc876b249134ac25c80f9c814",
            "0x00000000000000000000000021654dfbf44125271e87f71633ec1af17d0d685a",
            "0x0000000000000000000000000000000000000000000000000000000000aa36a7",
            "0x00000000000000000000000098eb1b52f962a91d9b0e30e08a7c0ddc2d49161a"
          ],
          "data": "0x0000000000000000000000000000000000000000000000000000000000000020000000000000000000000000000000000000000000000000000000000000016d0300000016000013fb00000000000000000000000021654dfbf44125271e87f71633ec1af17d0d685a00aa36a700000000000000000000000098eb1b52f962a91d9b0e30e08a7c0ddc2d49161a0000000000000000000000000000000000000000000000000000000000000001000000000000000000000000000000000000000000000000000000000000006000000000000000000000000000000000000000000000000000000000000000a0000000000000000000000000000000000000000000000000000000000000000158e32ebfb1eba848b27000afc4a5251b862ab086354c2d6d068aa92cb56ce14b00000000000000000000000000000000000000000000000000000000000000010000000000000000000000000000000000000000000000000000000000000020000000000000000000000000000000000000000000000000000000000000002000000000000000000000000019661d036d4e590948b9c00eef3807b88fbfa8e100000000000000000000000000000000000000",
          "blockHash": "0x571abf6ed00b627f658721792d375143b30404164533cbc4481d4cca540eb3af",
          "blockNumber": "0x81be63",
          "blockTimestamp": "0x67f03cb7",
          "transactionHash": "0x593ad73624685b6d114310e9ed405f5371c3d63b34df844b3a88b3a6055ebd84",
          "transactionIndex": "0x0",
          "logIndex": "0x0",
          "removed": false
        },
        {
          "address": "0xb08d78f439e55d02c398519eef61606a5926245f",
          "topics": [
            "0x788dbc1b7152732178210e7f4d9d010ef016f9eafbe66786bd7169f56e0c353a",
            "0xf1c3a346dc3ab986fcfad84c054369a4a5556f6536814916904dc17e4c29a01f"
          ],
          "data": "0x",
          "blockHash": "0x571abf6ed00b627f658721792d375143b30404164533cbc4481d4cca540eb3af",
          "blockNumber": "0x81be63",
          "blockTimestamp": "0x67f03cb7",
          "transactionHash": "0x593ad73624685b6d114310e9ed405f5371c3d63b34df844b3a88b3a6055ebd84",
          "transactionIndex": "0x0",
          "logIndex": "0x1",
          "removed": false
        },
        {
          "address": "0x783c4a0bb6663359281ad4a637d5af68f83ae213",
          "topics": [
            "0x253a3a04cab70d47c1504809242d9350cd81627b4f1d50753e159cf8cd76ed33"
          ],
          "data": "0xf1c3a346dc3ab986fcfad84c054369a4a5556f6536814916904dc17e4c29a01f0000000000000000000000000000000000000000000000000000000000000016",
          "blockHash": "0x571abf6ed00b627f658721792d375143b30404164533cbc4481d4cca540eb3af",
          "blockNumber": "0x81be63",
          "blockTimestamp": "0x67f03cb7",
          "transactionHash": "0x593ad73624685b6d114310e9ed405f5371c3d63b34df844b3a88b3a6055ebd84",
          "transactionIndex": "0x0",
          "logIndex": "0x2",
          "removed": false
        },
        {
          "address": "0xd5eb5fa3f470ebbb93a4a58c644c87031268a04a",
          "topics": [
            "0x65695c3748edae85a24cc2c60b299b31f463050bc259150d2e5802ec8d11720a",
            "0xf1c3a346dc3ab986fcfad84c054369a4a5556f6536814916904dc17e4c29a01f",
            "0x0000000000000000000000000000000000000000000000000000000000aa36a7"
          ],
          "data": "0x00000000000000000000000000000000000000000000000000000000000314ee0000000000000000000000000000000000000000000000000009b68acd1c769a",
          "blockHash": "0x571abf6ed00b627f658721792d375143b30404164533cbc4481d4cca540eb3af",
          "blockNumber": "0x81be63",
          "blockTimestamp": "0x67f03cb7",
          "transactionHash": "0x593ad73624685b6d114310e9ed405f5371c3d63b34df844b3a88b3a6055ebd84",
          "transactionIndex": "0x0",
          "logIndex": "0x3",
          "removed": false
        },
        {
          "address": "0x21654dfbf44125271e87f71633ec1af17d0d685a",
          "topics": [
            "0xc993982486b74c2846b97472fb81c2ffe7b9b135062b8da6663d73886422fbad"
          ],
          "data": "0x00000000000000000000000000000000000000000000000000000000000000400000000000000000000000000000000000000000000000000000000000000080000000000000000000000000000000000000000000000000000000000000000158e32ebfb1eba848b27000afc4a5251b862ab086354c2d6d068aa92cb56ce14b00000000000000000000000000000000000000000000000000000000000000010000000000000000000000000000000000000000000000000000000000000020000000000000000000000000000000000000000000000000000000000000002000000000000000000000000019661d036d4e590948b9c00eef3807b88fbfa8e1",
          "blockHash": "0x571abf6ed00b627f658721792d375143b30404164533cbc4481d4cca540eb3af",
          "blockNumber": "0x81be63",
          "blockTimestamp": "0x67f03cb7",
          "transactionHash": "0x593ad73624685b6d114310e9ed405f5371c3d63b34df844b3a88b3a6055ebd84",
          "transactionIndex": "0x0",
          "logIndex": "0x4",
          "removed": false
        }
      ],
      "logsBloom": "0x00000000000000828000000000000000000011000000000000000000002000000000040000000010000000100000080002000000000000000000000000000800000000000000000010000000000000000000080040000000000000000000000040000000000000000000020000000000000000000000000000000000000000000000000000000002000000010000000000000000000000000100000000000000000100000000000010000000000000001200000000000000000080020200000000001000000000000040000000000000100000000000000000000000000080100000400000000000000000800000000000000400880000080000000000000400",
      "type": "0x2",
      "transactionHash": "0x593ad73624685b6d114310e9ed405f5371c3d63b34df844b3a88b3a6055ebd84",
      "transactionIndex": "0x0",
      "blockHash": "0x571abf6ed00b627f658721792d375143b30404164533cbc4481d4cca540eb3af",
      "blockNumber": "0x81be63",
      "gasUsed": "0x3cc81",
      "effectiveGasPrice": "0x59682f00",
      "from": "0x19661d036d4e590948b9c00eef3807b88fbfa8e1",
      "to": "0x21654dfbf44125271e87f71633ec1af17d0d685a",
      "contractAddress": null,
      "l1DiffSize": "0x1f",
      "l1FeeRate": "0x9502f900"
    }
  ],
  "libraries": [],
  "pending": [],
  "returns": {},
  "timestamp": 1743797437,
  "chain": 5115,
  "commit": "adf00b0"
}