{
  "transactions": [
    {
      "hash": "0xddecd02e758cf7396deb13d2b1160b68993288554c74dc7cfca07bbb1fb0e7d7",
      "transactionType": "CALL",
      "contractName": null,
      "contractAddress": "0x21654dfbf44125271e87f71633ec1af17d0d685a",
      "function": "placeBid(uint256)",
      "arguments": [
        "1"
      ],
      "transaction": {
        "from": "0x19661d036d4e590948b9c00eef3807b88fbfa8e1",
        "to": "0x21654dfbf44125271e87f71633ec1af17d0d685a",
        "gas": "0x1bbee",
        "value": "0x0",
        "input": "0x9979ef450000000000000000000000000000000000000000000000000000000000000001",
        "nonce": "0xa",
        "chainId": "0x13fb"
      },
      "additionalContracts": [],
      "isFixedGasLimit": false
    },
    {
      "hash": "0xb4c62ef49b3191d0d46fb014d0c6e74514070e2184d03f914e0d33a602aa2257",
      "transactionType": "CALL",
      "contractName": null,
      "contractAddress": "0xd0a9c6e7ff012f22ba52038f9727b50e16466176",
      "function": "approve(address,uint256)",
      "arguments": [
        "0x21654dFbF44125271e87f71633ec1af17d0D685a",
        "1000000000000000000"
      ],
      "transaction": {
        "from": "0x19661d036d4e590948b9c00eef3807b88fbfa8e1",
        "to": "0xd0a9c6e7ff012f22ba52038f9727b50e16466176",
        "gas": "0xa111",
        "value": "0x0",
        "input": "0x095ea7b300000000000000000000000021654dfbf44125271e87f71633ec1af17d0d685a0000000000000000000000000000000000000000000000000de0b6b3a7640000",
        "nonce": "0xb",
        "chainId": "0x13fb"
      },
      "additionalContracts": [],
      "isFixedGasLimit": false
    },
    {
      "hash": "0xe41e90ea290c2c38d4bb06ea1d66fca618f1a0f7a72f3adf77a9952f7702d936",
      "transactionType": "CALL",
      "contractName": null,
      "contractAddress": "0x21654dfbf44125271e87f71633ec1af17d0d685a",
      "function": "fill(bytes32,bytes,bytes)",
      "arguments": [
        "0x58e32ebfb1eba848b27000afc4a5251b862ab086354c2d6d068aa92cb56ce14b",
        "0x000000000000000000000000000000000000000000000000000000000000002000000000000000000000000019661d036d4e590948b9c00eef3807b88fbfa8e100000000000000000000000019661d036d4e590948b9c00eef3807b88fbfa8e100000000000000000000000030e9b6b0d161cbd5ff8cf904ff4fa43ce66ac346000000000000000000000000d0a9c6e7ff012f22ba52038f9727b50e16466176000000000000000000000000000000000000000000000000016345785d8a0000000000000000000000000000000000000000000000000000016345785d8a00000000000000000000000000000000000000000000000000000000000000000afc0000000000000000000000000000000000000000000000000000000000aa36a700000000000000000000000000000000000000000000000000000000000013fb00000000000000000000000021654dfbf44125271e87f71633ec1af17d0d685a0000000000000000000000000000000000000000000000000000000067f18d1000000000000000000000000000000000000000000000000000000000000001800000000000000000000000000000000000000000000000000000000000000000",
        "0x00000000000000000000000019661d036d4e590948b9c00eef3807b88fbfa8e1"
      ],
      "transaction": {
        "from": "0x19661d036d4e590948b9c00eef3807b88fbfa8e1",
        "to": "0x21654dfbf44125271e87f71633ec1af17d0d685a",
        "gas": "0x9c86b",
        "value": "0x0",
        "input": "0x82e2c43f58e32ebfb1eba848b27000afc4a5251b862ab086354c2d6d068aa92cb56ce14b0000000000000000000000000000000000000000000000000000000000000060000000000000000000000000000000000000000000000000000000000000024000000000000000000000000000000000000000000000000000000000000001c0000000000000000000000000000000000000000000000000000000000000002000000000000000000000000019661d036d4e590948b9c00eef3807b88fbfa8e100000000000000000000000019661d036d4e590948b9c00eef3807b88fbfa8e100000000000000000000000030e9b6b0d161cbd5ff8cf904ff4fa43ce66ac346000000000000000000000000d0a9c6e7ff012f22ba52038f9727b50e16466176000000000000000000000000000000000000000000000000016345785d8a0000000000000000000000000000000000000000000000000000016345785d8a00000000000000000000000000000000000000000000000000000000000000000afc0000000000000000000000000000000000000000000000000000000000aa36a700000000000000000000000000000000000000000000000000000000000013fb00000000000000000000000021654dfbf44125271e87f71633ec1af17d0d685a0000000000000000000000000000000000000000000000000000000067f18d1000000000000000000000000000000000000000000000000000000000000001800000000000000000000000000000000000000000000000000000000000000000000000000000000000000000000000000000000000000000000000000000002000000000000000000000000019661d036d4e590948b9c00eef3807b88fbfa8e1",
        "nonce": "0xc",
        "chainId": "0x13fb"
      },
      "additionalContracts": [],
      "isFixedGasLimit": false
    }
  ],
  "receipts": [
    {
      "status": "0x1",
      "cumulativeGasUsed": "0x3417c",
      "logs": [
        {
          "address": "0x21654dfbf44125271e87f71633ec1af17d0d685a",
          "topics": [
            "0xb8d756f2d1da4663767eb4d559780ace84f2f65a421a60ddcb47e8b2e5d2fd26",
            "0x0000000000000000000000000000000000000000000000000000000000000001",
            "0x00000000000000000000000019661d036d4e590948b9c00eef3807b88fbfa8e1"
          ],
          "data": "0x000000000000000000000000000000000000000000000000019de421fc554000",
          "blockHash": "0x2251c2ae33d04e919e5c17998ea62c43f25bf3cc4628b72ee8d0dd36c8ba2898",
          "blockNumber": "0x81be25",
          "blockTimestamp": "0x67f03c3b",
          "transactionHash": "0xddecd02e758cf7396deb13d2b1160b68993288554c74dc7cfca07bbb1fb0e7d7",
          "transactionIndex": "0x2",
          "logIndex": "0x5",
          "removed": false
        }
      ],
      "logsBloom": "0x00000000000000000000000000000000000000000000001000000000000000000000000000000000000000000000000000000000000000000000000000040000000000000000000000000000000000000000000000040000000000000000000000000000000000000000000000000000000000000000000000000000000000000000000000000002000000010000000000000000000000000000000000000000000000000000000000000000000000000000000000000000000004020000000000000000000000000140000000000000000000000000000000800000000040000000000000000000000000000000000000000000000000000000040000000000",
      "type": "0x2",
      "transactionHash": "0xddecd02e758cf7396deb13d2b1160b68993288554c74dc7cfca07bbb1fb0e7d7",
      "transactionIndex": "0x2",
      "blockHash": "0x2251c2ae33d04e919e5c17998ea62c43f25bf3cc4628b72ee8d0dd36c8ba2898",
      "blockNumber": "0x81be25",
      "gasUsed": "0x14166",
      "effectiveGasPrice": "0x989681",
      "from": "0x19661d036d4e590948b9c00eef3807b88fbfa8e1",
      "to": "0x21654dfbf44125271e87f71633ec1af17d0d685a",
      "contractAddress": null,
      "l1DiffSize": "0x5e",
      "l1FeeRate": "0x9502f900"
    },
    {
      "status": "0x1",
      "cumulativeGasUsed": "0x749d",
      "logs": [
        {
          "address": "0xd0a9c6e7ff012f22ba52038f9727b50e16466176",
          "topics": [
            "0x8c5be1e5ebec7d5bd14f71427d1e84f3dd0314c0f7b2291e5b200ac8c7c3b925",
            "0x00000000000000000000000019661d036d4e590948b9c00eef3807b88fbfa8e1",
            "0x00000000000000000000000021654dfbf44125271e87f71633ec1af17d0d685a"
          ],
          "data": "0x0000000000000000000000000000000000000000000000000de0b6b3a7640000",
          "blockHash": "0xd2b83c1d87c63b71c37f6de015284cc1324724161de358d641b781228489b010",
          "blockNumber": "0x81be26",
          "blockTimestamp": "0x67f03c3d",
          "transactionHash": "0xb4c62ef49b3191d0d46fb014d0c6e74514070e2184d03f914e0d33a602aa2257",
          "transactionIndex": "0x0",
          "logIndex": "0x0",
          "removed": false
        }
      ],
      "logsBloom": "0x00000000000000000000000000000000000001000000001000000000000000000000000000000000000000000000000000000000000000000000000000200000000000000000000000000000000000000000000000000000000000000000000000000000000000000000000000080000000000000000000000000000000000000000000000000000000000000000000000000000000000000000000000000000020000000000000000000000000000000000000400000000000080000000000000000000000000000100000000000000000000002000000000000000000000100010000000000000000000000000000000000000000000000000040000000000",
      "type": "0x2",
      "transactionHash": "0xb4c62ef49b3191d0d46fb014d0c6e74514070e2184d03f914e0d33a602aa2257",
      "transactionIndex": "0x0",
      "blockHash": "0xd2b83c1d87c63b71c37f6de015284cc1324724161de358d641b781228489b010",
      "blockNumber": "0x81be26",
      "gasUsed": "0x749d",
      "effectiveGasPrice": "0x989681",
      "from": "0x19661d036d4e590948b9c00eef3807b88fbfa8e1",
      "to": "0xd0a9c6e7ff012f22ba52038f9727b50e16466176",
      "contractAddress": null,
      "l1DiffSize": "0x35",
      "l1FeeRate": "0x9502f900"
    },
    {
      "status": "0x1",
      "cumulativeGasUsed": "0x789c5",
      "logs": [
        {
          "address": "0xd0a9c6e7ff012f22ba52038f9727b50e16466176",
          "topics": [
            "0xddf252ad1be2c89b69c2b068fc378daa952ba7f163c4a11628f55a4df523b3ef",
            "0x00000000000000000000000019661d036d4e590948b9c00eef3807b88fbfa8e1",
            "0x00000000000000000000000019661d036d4e590948b9c00eef3807b88fbfa8e1"
          ],
          "data": "0x000000000000000000000000000000000000000000000000019de421fc554000",
          "blockHash": "0xd2b83c1d87c63b71c37f6de015284cc1324724161de358d641b781228489b010",
          "blockNumber": "0x81be26",
          "blockTimestamp": "0x67f03c3d",
          "transactionHash": "0xe41e90ea290c2c38d4bb06ea1d66fca618f1a0f7a72f3adf77a9952f7702d936",
          "transactionIndex": "0x1",
          "logIndex": "0x1",
          "removed": false
        },
        {
          "address": "0x21654dfbf44125271e87f71633ec1af17d0d685a",
          "topics": [
            "0x57f1f65270c1c2c1771948825ee86f8d23d11ab44b16eb9c213056e042d06e59"
          ],
          "data": "0x58e32ebfb1eba848b27000afc4a5251b862ab086354c2d6d068aa92cb56ce14b0000000000000000000000000000000000000000000000000000000000000060000000000000000000000000000000000000000000000000000000000000024000000000000000000000000000000000000000000000000000000000000001c0000000000000000000000000000000000000000000000000000000000000002000000000000000000000000019661d036d4e590948b9c00eef3807b88fbfa8e100000000000000000000000019661d036d4e590948b9c00eef3807b88fbfa8e100000000000000000000000030e9b6b0d161cbd5ff8cf904ff4fa43ce66ac346000000000000000000000000d0a9c6e7ff012f22ba52038f9727b50e16466176000000000000000000000000000000000000000000000000016345785d8a0000000000000000000000000000000000000000000000000000016345785d8a00000000000000000000000000000000000000000000000000000000000000000afc0000000000000000000000000000000000000000000000000000000000aa36a700000000000000000000000000000000000000000000000000000000000013fb00000000000000000000000021654dfbf44125271e87f71633ec1af17d0d685a0000000000000000000000000000000000000000000000000000000067f18d1000000000000000000000000000000000000000000000000000000000000001800000000000000000000000000000000000000000000000000000000000000000000000000000000000000000000000000000000000000000000000000000002000000000000000000000000019661d036d4e590948b9c00eef3807b88fbfa8e1",
          "blockHash": "0xd2b83c1d87c63b71c37f6de015284cc1324724161de358d641b781228489b010",
          "blockNumber": "0x81be26",
          "blockTimestamp": "0x67f03c3d",
          "transactionHash": "0xe41e90ea290c2c38d4bb06ea1d66fca618f1a0f7a72f3adf77a9952f7702d936",
          "transactionIndex": "0x1",
          "logIndex": "0x2",
          "removed": false
        }
      ],
      "logsBloom": "0x02000000000000000000000000000000000000000000001000000000000000000000000000000000000000000000000000000000000000000000000000000000000000000000000000000008000000000000000000000000000000000000000008000000000000000000000000080000000000000000000000000010000000000000000000000002000000010000000000000000000000000000000000000000000000000000000000000000000000000000000400000000000000000000000000000002000000000140000000000000000000002000000000000000000000000000000000000000000000000000000000000000000000000400040000000000",
      "type": "0x2",
      "transactionHash": "0xe41e90ea290c2c38d4bb06ea1d66fca618f1a0f7a72f3adf77a9952f7702d936",
      "transactionIndex": "0x1",
      "blockHash": "0xd2b83c1d87c63b71c37f6de015284cc1324724161de358d641b781228489b010",
      "blockNumber": "0x81be26",
      "gasUsed": "0x71528",
      "effectiveGasPrice": "0x989681",
      "from": "0x19661d036d4e590948b9c00eef3807b88fbfa8e1",
      "to": "0x21654dfbf44125271e87f71633ec1af17d0d685a",
      "contractAddress": null,
      "l1DiffSize": "0x1b4",
      "l1FeeRate": "0x9502f900"
    }
  ],
  "libraries": [],
  "pending": [],
  "returns": {},
  "timestamp": 1743797315,
  "chain": 5115,
  "commit": "adf00b0"
}